:02000000702866
:0600060083120510080042
:06000C00831285140800B8
:1000120083128510910168308316920083128C102E
:1000220012158C18152812281211A001A101803076
:100032002106F00080307002031D212808302002C2
:10004200031851282008F2000130F0000030F100BE
:10005200720803193128F00DF10D7010FF3E2A28A5
:100062002708F0050030F1057008710403193C28D7
:100072000130F3003D28F30173184128851042280E
:100082008514910168308316920083128C10121528
:100092008C184C2849281211A00A0319A10A182801
:1000A20085149101D0308316920083128C101215A0
:0A00B2008C185C2859281211080070
:0600BC0083120514080088
:1000C20083129F149F1C6628632883161E088312BE
:0E00D200A300A4011E08A3040030A40408002B
:1000E000703083168F003430850004309F008530D7
:1000F00083129F0002309200032006200030851AF0
:100100000130A2002208031D97285E20612055308F
:10011000A70009200230FB000430FC00BA30FD00CB
:10012000FD0B9028FC0B9028FB0B902800007E28EC
:0201300098280D
:02400E00D400DC
:00000001FF
